:100000000C947D000C941A010C941A010C941A01A2
:100010000C941A010C941A010C941A010C941A01F4
:100020000C94DB000C941A010C941A010C941A0124
:100030000C941A010C941A010C94A9000C941A0146
:100040000C941A010C941A010C941A010C941A01C4
:100050000C941A010C941A010C941A010C941A01B4
:100060000C941A010C941A010C941A010C941A01A4
:100070000C941A010C941A010C941A010C941A0194
:100080000C941A010C941A010C941A010C941A0184
:100090000C941A010C941A010C941A010C941A0174
:1000A0000C941A010C941A010C941A010C941A0164
:1000B0000C941A010C941A010C941A010C941A0154
:1000C0000C941A010C941A010C941A010C941A0144
:1000D0000C941A010C941A010C941A010C941A0134
:1000E0000C941A010C941A010C941A010C941A0124
:1000F0000C941A0140004004800011241FBECFEF71
:10010000CDBFDFE7DEBFE4EFF0E040E019C0B7911C
:10011000A79137912791079107FD0EC0979187917D
:10012000EF01F92FE82F0BBF07900D92A217B3072D
:10013000D9F7FE011BBE04C01D92A217B307E1F759
:10014000E93FF40721F70E940C010C94A700F894F2
:02015000FFCFDF
:100152001F920F920FB60F9211240BB60F928F932C
:100162009F93AF93BF93EF93FF9380910040909141
:100172000140A0910240B09103400196A11DB11D22
:100182008093004090930140A0930240B0930340BB
:10019200E6E0FBE0808181608083FF91EF91BF9177
:1001A200AF919F918F910F900BBE0F900FBE0F904A
:0401B2001F901895ED
:1001B6001F920F920FB60F9211240BB60F928F93C8
:1001C600EF93FF9380910904E4E0F4E0808181607D
:1001D6008083FF91EF918F910F900BBE0F900FBE12
:0601E6000F901F90189518
:1001EC0078948FE99FE080930C0B90930D0BE1E0DA
:1001FC00FBE080818083E5E0FBE08081816080838F
:0C020C00E0E0FBE08081816080830895C9
:100218000E94F600E0E0F4E08081816080838081C4
:0C0228008D7F808381E080931104FFCF64
:040234000C94000026
:00000001FF
